{
  "contractName": "GameItems",
  "abi": [
    {
      "inputs": [],
      "stateMutability": "nonpayable",
      "type": "constructor"
    },
    {
      "anonymous": false,
      "inputs": [
        {
          "indexed": true,
          "internalType": "address",
          "name": "account",
          "type": "address"
        },
        {
          "indexed": true,
          "internalType": "address",
          "name": "operator",
          "type": "address"
        },
        {
          "indexed": false,
          "internalType": "bool",
          "name": "approved",
          "type": "bool"
        }
      ],
      "name": "ApprovalForAll",
      "type": "event"
    },
    {
      "anonymous": false,
      "inputs": [
        {
          "indexed": true,
          "internalType": "address",
          "name": "previousOwner",
          "type": "address"
        },
        {
          "indexed": true,
          "internalType": "address",
          "name": "newOwner",
          "type": "address"
        }
      ],
      "name": "OwnershipTransferred",
      "type": "event"
    },
    {
      "anonymous": false,
      "inputs": [
        {
          "indexed": true,
          "internalType": "address",
          "name": "operator",
          "type": "address"
        },
        {
          "indexed": true,
          "internalType": "address",
          "name": "from",
          "type": "address"
        },
        {
          "indexed": true,
          "internalType": "address",
          "name": "to",
          "type": "address"
        },
        {
          "indexed": false,
          "internalType": "uint256[]",
          "name": "ids",
          "type": "uint256[]"
        },
        {
          "indexed": false,
          "internalType": "uint256[]",
          "name": "values",
          "type": "uint256[]"
        }
      ],
      "name": "TransferBatch",
      "type": "event"
    },
    {
      "anonymous": false,
      "inputs": [
        {
          "indexed": true,
          "internalType": "address",
          "name": "operator",
          "type": "address"
        },
        {
          "indexed": true,
          "internalType": "address",
          "name": "from",
          "type": "address"
        },
        {
          "indexed": true,
          "internalType": "address",
          "name": "to",
          "type": "address"
        },
        {
          "indexed": false,
          "internalType": "uint256",
          "name": "id",
          "type": "uint256"
        },
        {
          "indexed": false,
          "internalType": "uint256",
          "name": "value",
          "type": "uint256"
        }
      ],
      "name": "TransferSingle",
      "type": "event"
    },
    {
      "anonymous": false,
      "inputs": [
        {
          "indexed": false,
          "internalType": "string",
          "name": "value",
          "type": "string"
        },
        {
          "indexed": true,
          "internalType": "uint256",
          "name": "id",
          "type": "uint256"
        }
      ],
      "name": "URI",
      "type": "event"
    },
    {
      "inputs": [
        {
          "internalType": "uint256",
          "name": "",
          "type": "uint256"
        }
      ],
      "name": "Prices",
      "outputs": [
        {
          "internalType": "uint256",
          "name": "",
          "type": "uint256"
        }
      ],
      "stateMutability": "view",
      "type": "function",
      "constant": true
    },
    {
      "inputs": [
        {
          "internalType": "address",
          "name": "",
          "type": "address"
        }
      ],
      "name": "approved",
      "outputs": [
        {
          "internalType": "uint256",
          "name": "",
          "type": "uint256"
        }
      ],
      "stateMutability": "view",
      "type": "function",
      "constant": true
    },
    {
      "inputs": [
        {
          "internalType": "address",
          "name": "account",
          "type": "address"
        },
        {
          "internalType": "uint256",
          "name": "id",
          "type": "uint256"
        }
      ],
      "name": "balanceOf",
      "outputs": [
        {
          "internalType": "uint256",
          "name": "",
          "type": "uint256"
        }
      ],
      "stateMutability": "view",
      "type": "function",
      "constant": true
    },
    {
      "inputs": [
        {
          "internalType": "address[]",
          "name": "accounts",
          "type": "address[]"
        },
        {
          "internalType": "uint256[]",
          "name": "ids",
          "type": "uint256[]"
        }
      ],
      "name": "balanceOfBatch",
      "outputs": [
        {
          "internalType": "uint256[]",
          "name": "",
          "type": "uint256[]"
        }
      ],
      "stateMutability": "view",
      "type": "function",
      "constant": true
    },
    {
      "inputs": [
        {
          "internalType": "uint256",
          "name": "id",
          "type": "uint256"
        }
      ],
      "name": "exists",
      "outputs": [
        {
          "internalType": "bool",
          "name": "",
          "type": "bool"
        }
      ],
      "stateMutability": "view",
      "type": "function",
      "constant": true
    },
    {
      "inputs": [
        {
          "internalType": "address",
          "name": "account",
          "type": "address"
        },
        {
          "internalType": "address",
          "name": "operator",
          "type": "address"
        }
      ],
      "name": "isApprovedForAll",
      "outputs": [
        {
          "internalType": "bool",
          "name": "",
          "type": "bool"
        }
      ],
      "stateMutability": "view",
      "type": "function",
      "constant": true
    },
    {
      "inputs": [
        {
          "internalType": "uint256",
          "name": "",
          "type": "uint256"
        }
      ],
      "name": "maxSupplyPerAddress",
      "outputs": [
        {
          "internalType": "uint256",
          "name": "",
          "type": "uint256"
        }
      ],
      "stateMutability": "view",
      "type": "function",
      "constant": true
    },
    {
      "inputs": [],
      "name": "name",
      "outputs": [
        {
          "internalType": "string",
          "name": "",
          "type": "string"
        }
      ],
      "stateMutability": "view",
      "type": "function",
      "constant": true
    },
    {
      "inputs": [],
      "name": "owner",
      "outputs": [
        {
          "internalType": "address",
          "name": "",
          "type": "address"
        }
      ],
      "stateMutability": "view",
      "type": "function",
      "constant": true
    },
    {
      "inputs": [],
      "name": "renounceOwnership",
      "outputs": [],
      "stateMutability": "nonpayable",
      "type": "function"
    },
    {
      "inputs": [
        {
          "internalType": "address",
          "name": "from",
          "type": "address"
        },
        {
          "internalType": "address",
          "name": "to",
          "type": "address"
        },
        {
          "internalType": "uint256[]",
          "name": "ids",
          "type": "uint256[]"
        },
        {
          "internalType": "uint256[]",
          "name": "amounts",
          "type": "uint256[]"
        },
        {
          "internalType": "bytes",
          "name": "data",
          "type": "bytes"
        }
      ],
      "name": "safeBatchTransferFrom",
      "outputs": [],
      "stateMutability": "nonpayable",
      "type": "function"
    },
    {
      "inputs": [
        {
          "internalType": "address",
          "name": "from",
          "type": "address"
        },
        {
          "internalType": "address",
          "name": "to",
          "type": "address"
        },
        {
          "internalType": "uint256",
          "name": "id",
          "type": "uint256"
        },
        {
          "internalType": "uint256",
          "name": "amount",
          "type": "uint256"
        },
        {
          "internalType": "bytes",
          "name": "data",
          "type": "bytes"
        }
      ],
      "name": "safeTransferFrom",
      "outputs": [],
      "stateMutability": "nonpayable",
      "type": "function"
    },
    {
      "inputs": [
        {
          "internalType": "address",
          "name": "operator",
          "type": "address"
        },
        {
          "internalType": "bool",
          "name": "approved",
          "type": "bool"
        }
      ],
      "name": "setApprovalForAll",
      "outputs": [],
      "stateMutability": "nonpayable",
      "type": "function"
    },
    {
      "inputs": [
        {
          "internalType": "bytes4",
          "name": "interfaceId",
          "type": "bytes4"
        }
      ],
      "name": "supportsInterface",
      "outputs": [
        {
          "internalType": "bool",
          "name": "",
          "type": "bool"
        }
      ],
      "stateMutability": "view",
      "type": "function",
      "constant": true
    },
    {
      "inputs": [
        {
          "internalType": "uint256",
          "name": "id",
          "type": "uint256"
        }
      ],
      "name": "totalSupply",
      "outputs": [
        {
          "internalType": "uint256",
          "name": "",
          "type": "uint256"
        }
      ],
      "stateMutability": "view",
      "type": "function",
      "constant": true
    },
    {
      "inputs": [
        {
          "internalType": "address",
          "name": "newOwner",
          "type": "address"
        }
      ],
      "name": "transferOwnership",
      "outputs": [],
      "stateMutability": "nonpayable",
      "type": "function"
    },
    {
      "inputs": [
        {
          "internalType": "string",
          "name": "newURI",
          "type": "string"
        }
      ],
      "name": "changeURI",
      "outputs": [],
      "stateMutability": "nonpayable",
      "type": "function"
    },
    {
      "inputs": [
        {
          "internalType": "string",
          "name": "newName",
          "type": "string"
        }
      ],
      "name": "changeName",
      "outputs": [],
      "stateMutability": "nonpayable",
      "type": "function"
    },
    {
      "inputs": [
        {
          "internalType": "address",
          "name": "newaddress",
          "type": "address"
        }
      ],
      "name": "changeGameAddress",
      "outputs": [],
      "stateMutability": "nonpayable",
      "type": "function"
    },
    {
      "inputs": [],
      "name": "ownerAddress",
      "outputs": [
        {
          "internalType": "address",
          "name": "",
          "type": "address"
        }
      ],
      "stateMutability": "view",
      "type": "function",
      "constant": true
    },
    {
      "inputs": [
        {
          "internalType": "uint256",
          "name": "tokenId",
          "type": "uint256"
        }
      ],
      "name": "showMaxSupply",
      "outputs": [
        {
          "internalType": "uint256",
          "name": "",
          "type": "uint256"
        }
      ],
      "stateMutability": "view",
      "type": "function",
      "constant": true
    },
    {
      "inputs": [
        {
          "internalType": "uint256",
          "name": "tokenId",
          "type": "uint256"
        }
      ],
      "name": "verifyPrice",
      "outputs": [
        {
          "internalType": "uint256",
          "name": "",
          "type": "uint256"
        }
      ],
      "stateMutability": "view",
      "type": "function",
      "constant": true
    },
    {
      "inputs": [
        {
          "internalType": "address",
          "name": "player",
          "type": "address"
        },
        {
          "internalType": "uint256",
          "name": "id",
          "type": "uint256"
        }
      ],
      "name": "allowToMint",
      "outputs": [],
      "stateMutability": "nonpayable",
      "type": "function"
    },
    {
      "inputs": [
        {
          "internalType": "uint256",
          "name": "id",
          "type": "uint256"
        },
        {
          "internalType": "uint256",
          "name": "supply",
          "type": "uint256"
        }
      ],
      "name": "setSupplyPerPlayer",
      "outputs": [],
      "stateMutability": "nonpayable",
      "type": "function"
    },
    {
      "inputs": [
        {
          "internalType": "string",
          "name": "newuri",
          "type": "string"
        }
      ],
      "name": "setURI",
      "outputs": [],
      "stateMutability": "nonpayable",
      "type": "function"
    },
    {
      "inputs": [
        {
          "internalType": "uint256",
          "name": "id",
          "type": "uint256"
        },
        {
          "internalType": "uint256",
          "name": "price",
          "type": "uint256"
        }
      ],
      "name": "setPrice",
      "outputs": [],
      "stateMutability": "nonpayable",
      "type": "function"
    },
    {
      "inputs": [
        {
          "internalType": "uint256",
          "name": "_tokenId",
          "type": "uint256"
        }
      ],
      "name": "uri",
      "outputs": [
        {
          "internalType": "string",
          "name": "",
          "type": "string"
        }
      ],
      "stateMutability": "view",
      "type": "function",
      "constant": true
    },
    {
      "inputs": [
        {
          "internalType": "uint256",
          "name": "id",
          "type": "uint256"
        }
      ],
      "name": "mint",
      "outputs": [],
      "stateMutability": "payable",
      "type": "function",
      "payable": true
    },
    {
      "inputs": [
        {
          "internalType": "uint256",
          "name": "id",
          "type": "uint256"
        },
        {
          "internalType": "uint256",
          "name": "amount",
          "type": "uint256"
        },
        {
          "internalType": "bytes",
          "name": "data",
          "type": "bytes"
        }
      ],
      "name": "increaseSupply",
      "outputs": [],
      "stateMutability": "nonpayable",
      "type": "function"
    },
    {
      "inputs": [
        {
          "internalType": "address",
          "name": "to",
          "type": "address"
        },
        {
          "internalType": "uint256[]",
          "name": "ids",
          "type": "uint256[]"
        },
        {
          "internalType": "uint256[]",
          "name": "amounts",
          "type": "uint256[]"
        },
        {
          "internalType": "bytes",
          "name": "data",
          "type": "bytes"
        }
      ],
      "name": "mintBatch",
      "outputs": [],
      "stateMutability": "nonpayable",
      "type": "function"
    },
    {
      "inputs": [],
      "name": "withdrawAll",
      "outputs": [],
      "stateMutability": "nonpayable",
      "type": "function"
    }
  ],
  "bytecode": "0x60806040526040518060400160405280600b81526020017f526f62696e204d616e69610000000000000000000000000000000000000000008152506005908051906020019062000051929190620001d3565b503480156200005f57600080fd5b50604051806020016040528060008152506200008181620000e960201b60201c565b50620000a2620000966200010560201b60201c565b6200010d60201b60201c565b33600660006101000a81548173ffffffffffffffffffffffffffffffffffffffff021916908373ffffffffffffffffffffffffffffffffffffffff160217905550620002e8565b806002908051906020019062000101929190620001d3565b5050565b600033905090565b6000600360009054906101000a900473ffffffffffffffffffffffffffffffffffffffff16905081600360006101000a81548173ffffffffffffffffffffffffffffffffffffffff021916908373ffffffffffffffffffffffffffffffffffffffff1602179055508173ffffffffffffffffffffffffffffffffffffffff168173ffffffffffffffffffffffffffffffffffffffff167f8be0079c531659141344cd1fd0a4f28419497f9722a3daafe3b4186f6b6457e060405160405180910390a35050565b828054620001e190620002b2565b90600052602060002090601f01602090048101928262000205576000855562000251565b82601f106200022057805160ff191683800117855562000251565b8280016001018555821562000251579182015b828111156200025057825182559160200191906001019062000233565b5b50905062000260919062000264565b5090565b5b808211156200027f57600081600090555060010162000265565b5090565b7f4e487b7100000000000000000000000000000000000000000000000000000000600052602260045260246000fd5b60006002820490506001821680620002cb57607f821691505b60208210811415620002e257620002e162000283565b5b50919050565b6149ba80620002f86000396000f3fe6080604052600436106101d75760003560e01c80638da5cb5b11610102578063dffd605411610095578063f242432a11610064578063f242432a146106e0578063f2fde38b14610709578063f359631c14610732578063f7d975771461076f576101d7565b8063dffd605414610628578063e13acdfa14610651578063e5e01c111461067a578063e985e9c5146106a3576101d7565b8063a1dd185a116100d1578063a1dd185a14610548578063a22cb46514610585578063bd85b039146105ae578063d8b964e6146105eb576101d7565b80638da5cb5b146104ad5780638f84aa09146104d857806396089d9b14610503578063a0712d681461052c576101d7565b80631f7fdffa1161017a5780634f558e79116101495780634f558e79146104195780635353a2d814610456578063715018a61461047f578063853828b614610496576101d7565b80631f7fdffa1461034d5780632c01bf91146103765780632eb2c2d6146103b35780634e1273f4146103dc576101d7565b806306fdde03116101b657806306fdde031461027f57806308a05775146102aa5780630d2cdf79146102d35780630e89341c14610310576101d7565b8062fdd58e146101dc57806301ffc9a71461021957806302fe530514610256575b600080fd5b3480156101e857600080fd5b5061020360048036038101906101fe9190612d7a565b610798565b6040516102109190612dc9565b60405180910390f35b34801561022557600080fd5b50610240600480360381019061023b9190612e3c565b610861565b60405161024d9190612e84565b60405180910390f35b34801561026257600080fd5b5061027d60048036038101906102789190612fe5565b610943565b005b34801561028b57600080fd5b506102946109cb565b6040516102a191906130b6565b60405180910390f35b3480156102b657600080fd5b506102d160048036038101906102cc91906130d8565b610a59565b005b3480156102df57600080fd5b506102fa60048036038101906102f59190613118565b610b46565b6040516103079190612dc9565b60405180910390f35b34801561031c57600080fd5b5061033760048036038101906103329190613118565b610b63565b60405161034491906130b6565b60405180910390f35b34801561035957600080fd5b50610374600480360381019061036f91906132ae565b610b97565b005b34801561038257600080fd5b5061039d60048036038101906103989190613118565b610c25565b6040516103aa9190612dc9565b60405180910390f35b3480156103bf57600080fd5b506103da60048036038101906103d59190613369565b610c3d565b005b3480156103e857600080fd5b5061040360048036038101906103fe91906134fb565b610cde565b6040516104109190613631565b60405180910390f35b34801561042557600080fd5b50610440600480360381019061043b9190613118565b610df7565b60405161044d9190612e84565b60405180910390f35b34801561046257600080fd5b5061047d60048036038101906104789190612fe5565b610e0b565b005b34801561048b57600080fd5b50610494610ea1565b005b3480156104a257600080fd5b506104ab610f29565b005b3480156104b957600080fd5b506104c2610ff5565b6040516104cf9190613662565b60405180910390f35b3480156104e457600080fd5b506104ed61101f565b6040516104fa9190613662565b60405180910390f35b34801561050f57600080fd5b5061052a60048036038101906105259190612d7a565b61102e565b005b61054660048036038101906105419190613118565b611239565b005b34801561055457600080fd5b5061056f600480360381019061056a9190613118565b61142d565b60405161057c9190612dc9565b60405180910390f35b34801561059157600080fd5b506105ac60048036038101906105a791906136a9565b611445565b005b3480156105ba57600080fd5b506105d560048036038101906105d09190613118565b61145b565b6040516105e29190612dc9565b60405180910390f35b3480156105f757600080fd5b50610612600480360381019061060d91906136e9565b611478565b60405161061f9190612dc9565b60405180910390f35b34801561063457600080fd5b5061064f600480360381019061064a91906136e9565b611490565b005b34801561065d57600080fd5b5061067860048036038101906106739190613716565b611550565b005b34801561068657600080fd5b506106a1600480360381019061069c9190612fe5565b6115e4565b005b3480156106af57600080fd5b506106ca60048036038101906106c59190613785565b6115fe565b6040516106d79190612e84565b60405180910390f35b3480156106ec57600080fd5b50610707600480360381019061070291906137c5565b611692565b005b34801561071557600080fd5b50610730600480360381019061072b91906136e9565b611733565b005b34801561073e57600080fd5b5061075960048036038101906107549190613118565b61182b565b6040516107669190612dc9565b60405180910390f35b34801561077b57600080fd5b50610796600480360381019061079191906130d8565b611848565b005b60008073ffffffffffffffffffffffffffffffffffffffff168373ffffffffffffffffffffffffffffffffffffffff161415610809576040517f08c379a0000000000000000000000000000000000000000000000000000000008152600401610800906138ce565b60405180910390fd5b60008083815260200190815260200160002060008473ffffffffffffffffffffffffffffffffffffffff1673ffffffffffffffffffffffffffffffffffffffff16815260200190815260200160002054905092915050565b60007fd9b67a26000000000000000000000000000000000000000000000000000000007bffffffffffffffffffffffffffffffffffffffffffffffffffffffff1916827bffffffffffffffffffffffffffffffffffffffffffffffffffffffff1916148061092c57507f0e89341c000000000000000000000000000000000000000000000000000000007bffffffffffffffffffffffffffffffffffffffffffffffffffffffff1916827bffffffffffffffffffffffffffffffffffffffffffffffffffffffff1916145b8061093c575061093b826118e0565b5b9050919050565b61094b61194a565b73ffffffffffffffffffffffffffffffffffffffff16610969610ff5565b73ffffffffffffffffffffffffffffffffffffffff16146109bf576040517f08c379a00000000000000000000000000000000000000000000000000000000081526004016109b69061393a565b60405180910390fd5b6109c881611952565b50565b600580546109d890613989565b80601f0160208091040260200160405190810160405280929190818152602001828054610a0490613989565b8015610a515780601f10610a2657610100808354040283529160200191610a51565b820191906000526020600020905b815481529060010190602001808311610a3457829003601f168201915b505050505081565b610a6161194a565b73ffffffffffffffffffffffffffffffffffffffff16610a7f610ff5565b73ffffffffffffffffffffffffffffffffffffffff1614610ad5576040517f08c379a0000000000000000000000000000000000000000000000000000000008152600401610acc9061393a565b60405180910390fd5b80600a60008481526020019081526020016000205410610b2a576040517f08c379a0000000000000000000000000000000000000000000000000000000008152600401610b2190613a07565b60405180910390fd5b80600a6000848152602001908152602001600020819055505050565b600060096000838152602001908152602001600020549050919050565b60606007610b708361196c565b604051602001610b81929190613b43565b6040516020818303038152906040529050919050565b610b9f61194a565b73ffffffffffffffffffffffffffffffffffffffff16610bbd610ff5565b73ffffffffffffffffffffffffffffffffffffffff1614610c13576040517f08c379a0000000000000000000000000000000000000000000000000000000008152600401610c0a9061393a565b60405180910390fd5b610c1f84848484611acd565b50505050565b600a6020528060005260406000206000915090505481565b610c4561194a565b73ffffffffffffffffffffffffffffffffffffffff168573ffffffffffffffffffffffffffffffffffffffff161480610c8b5750610c8a85610c8561194a565b6115fe565b5b610cca576040517f08c379a0000000000000000000000000000000000000000000000000000000008152600401610cc190613be4565b60405180910390fd5b610cd78585858585611ceb565b5050505050565b60608151835114610d24576040517f08c379a0000000000000000000000000000000000000000000000000000000008152600401610d1b90613c76565b60405180910390fd5b6000835167ffffffffffffffff811115610d4157610d40612eba565b5b604051908082528060200260200182016040528015610d6f5781602001602082028036833780820191505090505b50905060005b8451811015610dec57610dbc858281518110610d9457610d93613c96565b5b6020026020010151858381518110610daf57610dae613c96565b5b6020026020010151610798565b828281518110610dcf57610dce613c96565b5b60200260200101818152505080610de590613cf4565b9050610d75565b508091505092915050565b600080610e038361145b565b119050919050565b610e1361194a565b73ffffffffffffffffffffffffffffffffffffffff16610e31610ff5565b73ffffffffffffffffffffffffffffffffffffffff1614610e87576040517f08c379a0000000000000000000000000000000000000000000000000000000008152600401610e7e9061393a565b60405180910390fd5b8060059080519060200190610e9d929190612c2f565b5050565b610ea961194a565b73ffffffffffffffffffffffffffffffffffffffff16610ec7610ff5565b73ffffffffffffffffffffffffffffffffffffffff1614610f1d576040517f08c379a0000000000000000000000000000000000000000000000000000000008152600401610f149061393a565b60405180910390fd5b610f276000611fff565b565b610f3161194a565b73ffffffffffffffffffffffffffffffffffffffff16610f4f610ff5565b73ffffffffffffffffffffffffffffffffffffffff1614610fa5576040517f08c379a0000000000000000000000000000000000000000000000000000000008152600401610f9c9061393a565b60405180910390fd5b610fad610ff5565b73ffffffffffffffffffffffffffffffffffffffff166108fc479081150290604051600060405180830381858888f19350505050158015610ff2573d6000803e3d6000fd5b50565b6000600360009054906101000a900473ffffffffffffffffffffffffffffffffffffffff16905090565b6000611029610ff5565b905090565b600660009054906101000a900473ffffffffffffffffffffffffffffffffffffffff1673ffffffffffffffffffffffffffffffffffffffff163373ffffffffffffffffffffffffffffffffffffffff16146110be576040517f08c379a00000000000000000000000000000000000000000000000000000000081526004016110b590613daf565b60405180910390fd5b600a6000828152602001908152602001600020546110dc8383610798565b1061111c576040517f08c379a000000000000000000000000000000000000000000000000000000000815260040161111390613e41565b60405180910390fd5b600061112f611129610ff5565b83610798565b1161116f576040517f08c379a000000000000000000000000000000000000000000000000000000000815260040161116690613ead565b60405180910390fd5b80600860008473ffffffffffffffffffffffffffffffffffffffff1673ffffffffffffffffffffffffffffffffffffffff1681526020019081526020016000205414156111f1576040517f08c379a00000000000000000000000000000000000000000000000000000000081526004016111e890613f19565b60405180910390fd5b80600860008473ffffffffffffffffffffffffffffffffffffffff1673ffffffffffffffffffffffffffffffffffffffff168152602001908152602001600020819055505050565b80600860003373ffffffffffffffffffffffffffffffffffffffff1673ffffffffffffffffffffffffffffffffffffffff16815260200190815260200160002054146112ba576040517f08c379a00000000000000000000000000000000000000000000000000000000081526004016112b190613fd1565b60405180910390fd5b600a6000828152602001908152602001600020546112d83383610798565b10611318576040517f08c379a000000000000000000000000000000000000000000000000000000000815260040161130f9061403d565b60405180910390fd5b600960008281526020019081526020016000205434101561136e576040517f08c379a0000000000000000000000000000000000000000000000000000000008152600401611365906140a9565b60405180910390fd5b600061138161137b610ff5565b83610798565b116113c1576040517f08c379a00000000000000000000000000000000000000000000000000000000081526004016113b890613ead565b60405180910390fd5b6113e56113cc610ff5565b33836001604051806020016040528060008152506120c5565b6000600860003373ffffffffffffffffffffffffffffffffffffffff1673ffffffffffffffffffffffffffffffffffffffff1681526020019081526020016000208190555050565b60096020528060005260406000206000915090505481565b61145761145061194a565b8383612347565b5050565b600060046000838152602001908152602001600020549050919050565b60086020528060005260406000206000915090505481565b61149861194a565b73ffffffffffffffffffffffffffffffffffffffff166114b6610ff5565b73ffffffffffffffffffffffffffffffffffffffff161461150c576040517f08c379a00000000000000000000000000000000000000000000000000000000081526004016115039061393a565b60405180910390fd5b80600660006101000a81548173ffffffffffffffffffffffffffffffffffffffff021916908373ffffffffffffffffffffffffffffffffffffffff16021790555050565b61155861194a565b73ffffffffffffffffffffffffffffffffffffffff16611576610ff5565b73ffffffffffffffffffffffffffffffffffffffff16146115cc576040517f08c379a00000000000000000000000000000000000000000000000000000000081526004016115c39061393a565b60405180910390fd5b6115df6115d7610ff5565b8484846124b4565b505050565b80600790805190602001906115fa929190612c2f565b5050565b6000600160008473ffffffffffffffffffffffffffffffffffffffff1673ffffffffffffffffffffffffffffffffffffffff16815260200190815260200160002060008373ffffffffffffffffffffffffffffffffffffffff1673ffffffffffffffffffffffffffffffffffffffff16815260200190815260200160002060009054906101000a900460ff16905092915050565b61169a61194a565b73ffffffffffffffffffffffffffffffffffffffff168573ffffffffffffffffffffffffffffffffffffffff1614806116e057506116df856116da61194a565b6115fe565b5b61171f576040517f08c379a00000000000000000000000000000000000000000000000000000000081526004016117169061413b565b60405180910390fd5b61172c85858585856120c5565b5050505050565b61173b61194a565b73ffffffffffffffffffffffffffffffffffffffff16611759610ff5565b73ffffffffffffffffffffffffffffffffffffffff16146117af576040517f08c379a00000000000000000000000000000000000000000000000000000000081526004016117a69061393a565b60405180910390fd5b600073ffffffffffffffffffffffffffffffffffffffff168173ffffffffffffffffffffffffffffffffffffffff16141561181f576040517f08c379a0000000000000000000000000000000000000000000000000000000008152600401611816906141cd565b60405180910390fd5b61182881611fff565b50565b6000600a6000838152602001908152602001600020549050919050565b61185061194a565b73ffffffffffffffffffffffffffffffffffffffff1661186e610ff5565b73ffffffffffffffffffffffffffffffffffffffff16146118c4576040517f08c379a00000000000000000000000000000000000000000000000000000000081526004016118bb9061393a565b60405180910390fd5b8060096000848152602001908152602001600020819055505050565b60007f01ffc9a7000000000000000000000000000000000000000000000000000000007bffffffffffffffffffffffffffffffffffffffffffffffffffffffff1916827bffffffffffffffffffffffffffffffffffffffffffffffffffffffff1916149050919050565b600033905090565b8060029080519060200190611968929190612c2f565b5050565b606060008214156119b4576040518060400160405280600181526020017f30000000000000000000000000000000000000000000000000000000000000008152509050611ac8565b600082905060005b600082146119e65780806119cf90613cf4565b915050600a826119df919061421c565b91506119bc565b60008167ffffffffffffffff811115611a0257611a01612eba565b5b6040519080825280601f01601f191660200182016040528015611a345781602001600182028036833780820191505090505b5090505b60008514611ac157600182611a4d919061424d565b9150600a85611a5c9190614281565b6030611a6891906142b2565b60f81b818381518110611a7e57611a7d613c96565b5b60200101907effffffffffffffffffffffffffffffffffffffffffffffffffffffffffffff1916908160001a905350600a85611aba919061421c565b9450611a38565b8093505050505b919050565b600073ffffffffffffffffffffffffffffffffffffffff168473ffffffffffffffffffffffffffffffffffffffff161415611b3d576040517f08c379a0000000000000000000000000000000000000000000000000000000008152600401611b349061437a565b60405180910390fd5b8151835114611b81576040517f08c379a0000000000000000000000000000000000000000000000000000000008152600401611b789061440c565b60405180910390fd5b6000611b8b61194a565b9050611b9c8160008787878761264a565b60005b8451811015611c5557838181518110611bbb57611bba613c96565b5b6020026020010151600080878481518110611bd957611bd8613c96565b5b6020026020010151815260200190815260200160002060008873ffffffffffffffffffffffffffffffffffffffff1673ffffffffffffffffffffffffffffffffffffffff1681526020019081526020016000206000828254611c3b91906142b2565b925050819055508080611c4d90613cf4565b915050611b9f565b508473ffffffffffffffffffffffffffffffffffffffff16600073ffffffffffffffffffffffffffffffffffffffff168273ffffffffffffffffffffffffffffffffffffffff167f4a39dc06d4c0dbc64b70af90fd698a233a518aa5d07e595d983b8c0526c8f7fb8787604051611ccd92919061442c565b60405180910390a4611ce481600087878787612660565b5050505050565b8151835114611d2f576040517f08c379a0000000000000000000000000000000000000000000000000000000008152600401611d269061440c565b60405180910390fd5b600073ffffffffffffffffffffffffffffffffffffffff168473ffffffffffffffffffffffffffffffffffffffff161415611d9f576040517f08c379a0000000000000000000000000000000000000000000000000000000008152600401611d96906144d5565b60405180910390fd5b6000611da961194a565b9050611db981878787878761264a565b60005b8451811015611f6a576000858281518110611dda57611dd9613c96565b5b602002602001015190506000858381518110611df957611df8613c96565b5b60200260200101519050600080600084815260200190815260200160002060008b73ffffffffffffffffffffffffffffffffffffffff1673ffffffffffffffffffffffffffffffffffffffff16815260200190815260200160002054905081811015611e9a576040517f08c379a0000000000000000000000000000000000000000000000000000000008152600401611e9190614567565b60405180910390fd5b81810360008085815260200190815260200160002060008c73ffffffffffffffffffffffffffffffffffffffff1673ffffffffffffffffffffffffffffffffffffffff168152602001908152602001600020819055508160008085815260200190815260200160002060008b73ffffffffffffffffffffffffffffffffffffffff1673ffffffffffffffffffffffffffffffffffffffff1681526020019081526020016000206000828254611f4f91906142b2565b9250508190555050505080611f6390613cf4565b9050611dbc565b508473ffffffffffffffffffffffffffffffffffffffff168673ffffffffffffffffffffffffffffffffffffffff168273ffffffffffffffffffffffffffffffffffffffff167f4a39dc06d4c0dbc64b70af90fd698a233a518aa5d07e595d983b8c0526c8f7fb8787604051611fe192919061442c565b60405180910390a4611ff7818787878787612660565b505050505050565b6000600360009054906101000a900473ffffffffffffffffffffffffffffffffffffffff16905081600360006101000a81548173ffffffffffffffffffffffffffffffffffffffff021916908373ffffffffffffffffffffffffffffffffffffffff1602179055508173ffffffffffffffffffffffffffffffffffffffff168173ffffffffffffffffffffffffffffffffffffffff167f8be0079c531659141344cd1fd0a4f28419497f9722a3daafe3b4186f6b6457e060405160405180910390a35050565b600073ffffffffffffffffffffffffffffffffffffffff168473ffffffffffffffffffffffffffffffffffffffff161415612135576040517f08c379a000000000000000000000000000000000000000000000000000000000815260040161212c906144d5565b60405180910390fd5b600061213f61194a565b905061215f81878761215088612838565b61215988612838565b8761264a565b600080600086815260200190815260200160002060008873ffffffffffffffffffffffffffffffffffffffff1673ffffffffffffffffffffffffffffffffffffffff168152602001908152602001600020549050838110156121f6576040517f08c379a00000000000000000000000000000000000000000000000000000000081526004016121ed90614567565b60405180910390fd5b83810360008087815260200190815260200160002060008973ffffffffffffffffffffffffffffffffffffffff1673ffffffffffffffffffffffffffffffffffffffff168152602001908152602001600020819055508360008087815260200190815260200160002060008873ffffffffffffffffffffffffffffffffffffffff1673ffffffffffffffffffffffffffffffffffffffff16815260200190815260200160002060008282546122ab91906142b2565b925050819055508573ffffffffffffffffffffffffffffffffffffffff168773ffffffffffffffffffffffffffffffffffffffff168373ffffffffffffffffffffffffffffffffffffffff167fc3d58168c5ae7397731d063d5bbf3d657854427343f4c083240f7aacaa2d0f628888604051612328929190614587565b60405180910390a461233e8288888888886128b2565b50505050505050565b8173ffffffffffffffffffffffffffffffffffffffff168373ffffffffffffffffffffffffffffffffffffffff1614156123b6576040517f08c379a00000000000000000000000000000000000000000000000000000000081526004016123ad90614622565b60405180910390fd5b80600160008573ffffffffffffffffffffffffffffffffffffffff1673ffffffffffffffffffffffffffffffffffffffff16815260200190815260200160002060008473ffffffffffffffffffffffffffffffffffffffff1673ffffffffffffffffffffffffffffffffffffffff16815260200190815260200160002060006101000a81548160ff0219169083151502179055508173ffffffffffffffffffffffffffffffffffffffff168373ffffffffffffffffffffffffffffffffffffffff167f17307eab39ab6107e8899845ad3d59bd9653f200f220920489ca2b5937696c31836040516124a79190612e84565b60405180910390a3505050565b600073ffffffffffffffffffffffffffffffffffffffff168473ffffffffffffffffffffffffffffffffffffffff161415612524576040517f08c379a000000000000000000000000000000000000000000000000000000000815260040161251b9061437a565b60405180910390fd5b600061252e61194a565b905061254f8160008761254088612838565b61254988612838565b8761264a565b8260008086815260200190815260200160002060008773ffffffffffffffffffffffffffffffffffffffff1673ffffffffffffffffffffffffffffffffffffffff16815260200190815260200160002060008282546125ae91906142b2565b925050819055508473ffffffffffffffffffffffffffffffffffffffff16600073ffffffffffffffffffffffffffffffffffffffff168273ffffffffffffffffffffffffffffffffffffffff167fc3d58168c5ae7397731d063d5bbf3d657854427343f4c083240f7aacaa2d0f62878760405161262c929190614587565b60405180910390a4612643816000878787876128b2565b5050505050565b612658868686868686612a8a565b505050505050565b61267f8473ffffffffffffffffffffffffffffffffffffffff16612c04565b15612830578373ffffffffffffffffffffffffffffffffffffffff1663bc197c8187878686866040518663ffffffff1660e01b81526004016126c5959493929190614697565b6020604051808303816000875af192505050801561270157506040513d601f19601f820116820180604052508101906126fe9190614714565b60015b6127a75761270d61474e565b806308c379a0141561276a5750612722614770565b8061272d575061276c565b806040517f08c379a000000000000000000000000000000000000000000000000000000000815260040161276191906130b6565b60405180910390fd5b505b6040517f08c379a000000000000000000000000000000000000000000000000000000000815260040161279e90614878565b60405180910390fd5b63bc197c8160e01b7bffffffffffffffffffffffffffffffffffffffffffffffffffffffff1916817bffffffffffffffffffffffffffffffffffffffffffffffffffffffff19161461282e576040517f08c379a00000000000000000000000000000000000000000000000000000000081526004016128259061490a565b60405180910390fd5b505b505050505050565b60606000600167ffffffffffffffff81111561285757612856612eba565b5b6040519080825280602002602001820160405280156128855781602001602082028036833780820191505090505b509050828160008151811061289d5761289c613c96565b5b60200260200101818152505080915050919050565b6128d18473ffffffffffffffffffffffffffffffffffffffff16612c04565b15612a82578373ffffffffffffffffffffffffffffffffffffffff1663f23a6e6187878686866040518663ffffffff1660e01b815260040161291795949392919061492a565b6020604051808303816000875af192505050801561295357506040513d601f19601f820116820180604052508101906129509190614714565b60015b6129f95761295f61474e565b806308c379a014156129bc5750612974614770565b8061297f57506129be565b806040517f08c379a00000000000000000000000000000000000000000000000000000000081526004016129b391906130b6565b60405180910390fd5b505b6040517f08c379a00000000000000000000000000000000000000000000000000000000081526004016129f090614878565b60405180910390fd5b63f23a6e6160e01b7bffffffffffffffffffffffffffffffffffffffffffffffffffffffff1916817bffffffffffffffffffffffffffffffffffffffffffffffffffffffff191614612a80576040517f08c379a0000000000000000000000000000000000000000000000000000000008152600401612a779061490a565b60405180910390fd5b505b505050505050565b612a98868686868686612c27565b600073ffffffffffffffffffffffffffffffffffffffff168573ffffffffffffffffffffffffffffffffffffffff161415612b4a5760005b8351811015612b4857828181518110612aec57612aeb613c96565b5b602002602001015160046000868481518110612b0b57612b0a613c96565b5b602002602001015181526020019081526020016000206000828254612b3091906142b2565b9250508190555080612b4190613cf4565b9050612ad0565b505b600073ffffffffffffffffffffffffffffffffffffffff168473ffffffffffffffffffffffffffffffffffffffff161415612bfc5760005b8351811015612bfa57828181518110612b9e57612b9d613c96565b5b602002602001015160046000868481518110612bbd57612bbc613c96565b5b602002602001015181526020019081526020016000206000828254612be2919061424d565b9250508190555080612bf390613cf4565b9050612b82565b505b505050505050565b6000808273ffffffffffffffffffffffffffffffffffffffff163b119050919050565b505050505050565b828054612c3b90613989565b90600052602060002090601f016020900481019282612c5d5760008555612ca4565b82601f10612c7657805160ff1916838001178555612ca4565b82800160010185558215612ca4579182015b82811115612ca3578251825591602001919060010190612c88565b5b509050612cb19190612cb5565b5090565b5b80821115612cce576000816000905550600101612cb6565b5090565b6000604051905090565b600080fd5b600080fd5b600073ffffffffffffffffffffffffffffffffffffffff82169050919050565b6000612d1182612ce6565b9050919050565b612d2181612d06565b8114612d2c57600080fd5b50565b600081359050612d3e81612d18565b92915050565b6000819050919050565b612d5781612d44565b8114612d6257600080fd5b50565b600081359050612d7481612d4e565b92915050565b60008060408385031215612d9157612d90612cdc565b5b6000612d9f85828601612d2f565b9250506020612db085828601612d65565b9150509250929050565b612dc381612d44565b82525050565b6000602082019050612dde6000830184612dba565b92915050565b60007fffffffff0000000000000000000000000000000000000000000000000000000082169050919050565b612e1981612de4565b8114612e2457600080fd5b50565b600081359050612e3681612e10565b92915050565b600060208284031215612e5257612e51612cdc565b5b6000612e6084828501612e27565b91505092915050565b60008115159050919050565b612e7e81612e69565b82525050565b6000602082019050612e996000830184612e75565b92915050565b600080fd5b600080fd5b6000601f19601f8301169050919050565b7f4e487b7100000000000000000000000000000000000000000000000000000000600052604160045260246000fd5b612ef282612ea9565b810181811067ffffffffffffffff82111715612f1157612f10612eba565b5b80604052505050565b6000612f24612cd2565b9050612f308282612ee9565b919050565b600067ffffffffffffffff821115612f5057612f4f612eba565b5b612f5982612ea9565b9050602081019050919050565b82818337600083830152505050565b6000612f88612f8384612f35565b612f1a565b905082815260208101848484011115612fa457612fa3612ea4565b5b612faf848285612f66565b509392505050565b600082601f830112612fcc57612fcb612e9f565b5b8135612fdc848260208601612f75565b91505092915050565b600060208284031215612ffb57612ffa612cdc565b5b600082013567ffffffffffffffff81111561301957613018612ce1565b5b61302584828501612fb7565b91505092915050565b600081519050919050565b600082825260208201905092915050565b60005b8381101561306857808201518184015260208101905061304d565b83811115613077576000848401525b50505050565b60006130888261302e565b6130928185613039565b93506130a281856020860161304a565b6130ab81612ea9565b840191505092915050565b600060208201905081810360008301526130d0818461307d565b905092915050565b600080604083850312156130ef576130ee612cdc565b5b60006130fd85828601612d65565b925050602061310e85828601612d65565b9150509250929050565b60006020828403121561312e5761312d612cdc565b5b600061313c84828501612d65565b91505092915050565b600067ffffffffffffffff8211156131605761315f612eba565b5b602082029050602081019050919050565b600080fd5b600061318961318484613145565b612f1a565b905080838252602082019050602084028301858111156131ac576131ab613171565b5b835b818110156131d557806131c18882612d65565b8452602084019350506020810190506131ae565b5050509392505050565b600082601f8301126131f4576131f3612e9f565b5b8135613204848260208601613176565b91505092915050565b600067ffffffffffffffff82111561322857613227612eba565b5b61323182612ea9565b9050602081019050919050565b600061325161324c8461320d565b612f1a565b90508281526020810184848401111561326d5761326c612ea4565b5b613278848285612f66565b509392505050565b600082601f83011261329557613294612e9f565b5b81356132a584826020860161323e565b91505092915050565b600080600080608085870312156132c8576132c7612cdc565b5b60006132d687828801612d2f565b945050602085013567ffffffffffffffff8111156132f7576132f6612ce1565b5b613303878288016131df565b935050604085013567ffffffffffffffff81111561332457613323612ce1565b5b613330878288016131df565b925050606085013567ffffffffffffffff81111561335157613350612ce1565b5b61335d87828801613280565b91505092959194509250565b600080600080600060a0868803121561338557613384612cdc565b5b600061339388828901612d2f565b95505060206133a488828901612d2f565b945050604086013567ffffffffffffffff8111156133c5576133c4612ce1565b5b6133d1888289016131df565b935050606086013567ffffffffffffffff8111156133f2576133f1612ce1565b5b6133fe888289016131df565b925050608086013567ffffffffffffffff81111561341f5761341e612ce1565b5b61342b88828901613280565b9150509295509295909350565b600067ffffffffffffffff82111561345357613452612eba565b5b602082029050602081019050919050565b600061347761347284613438565b612f1a565b9050808382526020820190506020840283018581111561349a57613499613171565b5b835b818110156134c357806134af8882612d2f565b84526020840193505060208101905061349c565b5050509392505050565b600082601f8301126134e2576134e1612e9f565b5b81356134f2848260208601613464565b91505092915050565b6000806040838503121561351257613511612cdc565b5b600083013567ffffffffffffffff8111156135305761352f612ce1565b5b61353c858286016134cd565b925050602083013567ffffffffffffffff81111561355d5761355c612ce1565b5b613569858286016131df565b9150509250929050565b600081519050919050565b600082825260208201905092915050565b6000819050602082019050919050565b6135a881612d44565b82525050565b60006135ba838361359f565b60208301905092915050565b6000602082019050919050565b60006135de82613573565b6135e8818561357e565b93506135f38361358f565b8060005b8381101561362457815161360b88826135ae565b9750613616836135c6565b9250506001810190506135f7565b5085935050505092915050565b6000602082019050818103600083015261364b81846135d3565b905092915050565b61365c81612d06565b82525050565b60006020820190506136776000830184613653565b92915050565b61368681612e69565b811461369157600080fd5b50565b6000813590506136a38161367d565b92915050565b600080604083850312156136c0576136bf612cdc565b5b60006136ce85828601612d2f565b92505060206136df85828601613694565b9150509250929050565b6000602082840312156136ff576136fe612cdc565b5b600061370d84828501612d2f565b91505092915050565b60008060006060848603121561372f5761372e612cdc565b5b600061373d86828701612d65565b935050602061374e86828701612d65565b925050604084013567ffffffffffffffff81111561376f5761376e612ce1565b5b61377b86828701613280565b9150509250925092565b6000806040838503121561379c5761379b612cdc565b5b60006137aa85828601612d2f565b92505060206137bb85828601612d2f565b9150509250929050565b600080600080600060a086880312156137e1576137e0612cdc565b5b60006137ef88828901612d2f565b955050602061380088828901612d2f565b945050604061381188828901612d65565b935050606061382288828901612d65565b925050608086013567ffffffffffffffff81111561384357613842612ce1565b5b61384f88828901613280565b9150509295509295909350565b7f455243313135353a2062616c616e636520717565727920666f7220746865207a60008201527f65726f2061646472657373000000000000000000000000000000000000000000602082015250565b60006138b8602b83613039565b91506138c38261385c565b604082019050919050565b600060208201905081810360008301526138e7816138ab565b9050919050565b7f4f776e61626c653a2063616c6c6572206973206e6f7420746865206f776e6572600082015250565b6000613924602083613039565b915061392f826138ee565b602082019050919050565b6000602082019050818103600083015261395381613917565b9050919050565b7f4e487b7100000000000000000000000000000000000000000000000000000000600052602260045260246000fd5b600060028204905060018216806139a157607f821691505b602082108114156139b5576139b461395a565b5b50919050565b7f796f752063616e27742064656372656173652074686520737570706c79000000600082015250565b60006139f1601d83613039565b91506139fc826139bb565b602082019050919050565b60006020820190508181036000830152613a20816139e4565b9050919050565b600081905092915050565b60008190508160005260206000209050919050565b60008154613a5481613989565b613a5e8186613a27565b94506001821660008114613a795760018114613a8a57613abd565b60ff19831686528186019350613abd565b613a9385613a32565b60005b83811015613ab557815481890152600182019150602081019050613a96565b838801955050505b50505092915050565b6000613ad18261302e565b613adb8185613a27565b9350613aeb81856020860161304a565b80840191505092915050565b7f2e6a736f6e000000000000000000000000000000000000000000000000000000600082015250565b6000613b2d600583613a27565b9150613b3882613af7565b600582019050919050565b6000613b4f8285613a47565b9150613b5b8284613ac6565b9150613b6682613b20565b91508190509392505050565b7f455243313135353a207472616e736665722063616c6c6572206973206e6f742060008201527f6f776e6572206e6f7220617070726f7665640000000000000000000000000000602082015250565b6000613bce603283613039565b9150613bd982613b72565b604082019050919050565b60006020820190508181036000830152613bfd81613bc1565b9050919050565b7f455243313135353a206163636f756e747320616e6420696473206c656e67746860008201527f206d69736d617463680000000000000000000000000000000000000000000000602082015250565b6000613c60602983613039565b9150613c6b82613c04565b604082019050919050565b60006020820190508181036000830152613c8f81613c53565b9050919050565b7f4e487b7100000000000000000000000000000000000000000000000000000000600052603260045260246000fd5b7f4e487b7100000000000000000000000000000000000000000000000000000000600052601160045260246000fd5b6000613cff82612d44565b91507fffffffffffffffffffffffffffffffffffffffffffffffffffffffffffffffff821415613d3257613d31613cc5565b5b600182019050919050565b7f796f75277265206e6f7420616c6c6f77656420746f20646f20746869732c207960008201527f6f75277265206e6f74207468652067616d650000000000000000000000000000602082015250565b6000613d99603283613039565b9150613da482613d3d565b604082019050919050565b60006020820190508181036000830152613dc881613d8c565b9050919050565b7f7468697320706c61796572207265616368656420746865206d6178696d756d2060008201527f6e756d626572206f66206d696e74696e67730000000000000000000000000000602082015250565b6000613e2b603283613039565b9150613e3682613dcf565b604082019050919050565b60006020820190508181036000830152613e5a81613e1e565b9050919050565b7f6e6f206d6f726520746f206d696e740000000000000000000000000000000000600082015250565b6000613e97600f83613039565b9150613ea282613e61565b602082019050919050565b60006020820190508181036000830152613ec681613e8a565b9050919050565b7f616c726561647920617070726f76656400000000000000000000000000000000600082015250565b6000613f03601083613039565b9150613f0e82613ecd565b602082019050919050565b60006020820190508181036000830152613f3281613ef6565b9050919050565b7f796f7520646f6e277420686176652061636365737320746f206d696e7420746860008201527f697320746f6b656e2c20796f752073686f756c6420706c61792074686520676160208201527f6d65000000000000000000000000000000000000000000000000000000000000604082015250565b6000613fbb604283613039565b9150613fc682613f39565b606082019050919050565b60006020820190508181036000830152613fea81613fae565b9050919050565b7f796f752063616e2774206d696e74206d6f726500000000000000000000000000600082015250565b6000614027601383613039565b915061403282613ff1565b602082019050919050565b600060208201905081810360008301526140568161401a565b9050919050565b7f6e6f7420656e6f756768204b4149000000000000000000000000000000000000600082015250565b6000614093600e83613039565b915061409e8261405d565b602082019050919050565b600060208201905081810360008301526140c281614086565b9050919050565b7f455243313135353a2063616c6c6572206973206e6f74206f776e6572206e6f7260008201527f20617070726f7665640000000000000000000000000000000000000000000000602082015250565b6000614125602983613039565b9150614130826140c9565b604082019050919050565b6000602082019050818103600083015261415481614118565b9050919050565b7f4f776e61626c653a206e6577206f776e657220697320746865207a65726f206160008201527f6464726573730000000000000000000000000000000000000000000000000000602082015250565b60006141b7602683613039565b91506141c28261415b565b604082019050919050565b600060208201905081810360008301526141e6816141aa565b9050919050565b7f4e487b7100000000000000000000000000000000000000000000000000000000600052601260045260246000fd5b600061422782612d44565b915061423283612d44565b925082614242576142416141ed565b5b828204905092915050565b600061425882612d44565b915061426383612d44565b92508282101561427657614275613cc5565b5b828203905092915050565b600061428c82612d44565b915061429783612d44565b9250826142a7576142a66141ed565b5b828206905092915050565b60006142bd82612d44565b91506142c883612d44565b9250827fffffffffffffffffffffffffffffffffffffffffffffffffffffffffffffffff038211156142fd576142fc613cc5565b5b828201905092915050565b7f455243313135353a206d696e7420746f20746865207a65726f2061646472657360008201527f7300000000000000000000000000000000000000000000000000000000000000602082015250565b6000614364602183613039565b915061436f82614308565b604082019050919050565b6000602082019050818103600083015261439381614357565b9050919050565b7f455243313135353a2069647320616e6420616d6f756e7473206c656e6774682060008201527f6d69736d61746368000000000000000000000000000000000000000000000000602082015250565b60006143f6602883613039565b91506144018261439a565b604082019050919050565b60006020820190508181036000830152614425816143e9565b9050919050565b6000604082019050818103600083015261444681856135d3565b9050818103602083015261445a81846135d3565b90509392505050565b7f455243313135353a207472616e7366657220746f20746865207a65726f20616460008201527f6472657373000000000000000000000000000000000000000000000000000000602082015250565b60006144bf602583613039565b91506144ca82614463565b604082019050919050565b600060208201905081810360008301526144ee816144b2565b9050919050565b7f455243313135353a20696e73756666696369656e742062616c616e636520666f60008201527f72207472616e7366657200000000000000000000000000000000000000000000602082015250565b6000614551602a83613039565b915061455c826144f5565b604082019050919050565b6000602082019050818103600083015261458081614544565b9050919050565b600060408201905061459c6000830185612dba565b6145a96020830184612dba565b9392505050565b7f455243313135353a2073657474696e6720617070726f76616c2073746174757360008201527f20666f722073656c660000000000000000000000000000000000000000000000602082015250565b600061460c602983613039565b9150614617826145b0565b604082019050919050565b6000602082019050818103600083015261463b816145ff565b9050919050565b600081519050919050565b600082825260208201905092915050565b600061466982614642565b614673818561464d565b935061468381856020860161304a565b61468c81612ea9565b840191505092915050565b600060a0820190506146ac6000830188613653565b6146b96020830187613653565b81810360408301526146cb81866135d3565b905081810360608301526146df81856135d3565b905081810360808301526146f3818461465e565b90509695505050505050565b60008151905061470e81612e10565b92915050565b60006020828403121561472a57614729612cdc565b5b6000614738848285016146ff565b91505092915050565b60008160e01c9050919050565b600060033d111561476d5760046000803e61476a600051614741565b90505b90565b600060443d101561478057614803565b614788612cd2565b60043d036004823e80513d602482011167ffffffffffffffff821117156147b0575050614803565b808201805167ffffffffffffffff8111156147ce5750505050614803565b80602083010160043d0385018111156147eb575050505050614803565b6147fa82602001850186612ee9565b82955050505050505b90565b7f455243313135353a207472616e7366657220746f206e6f6e204552433131353560008201527f526563656976657220696d706c656d656e746572000000000000000000000000602082015250565b6000614862603483613039565b915061486d82614806565b604082019050919050565b6000602082019050818103600083015261489181614855565b9050919050565b7f455243313135353a204552433131353552656365697665722072656a6563746560008201527f6420746f6b656e73000000000000000000000000000000000000000000000000602082015250565b60006148f4602883613039565b91506148ff82614898565b604082019050919050565b60006020820190508181036000830152614923816148e7565b9050919050565b600060a08201905061493f6000830188613653565b61494c6020830187613653565b6149596040830186612dba565b6149666060830185612dba565b8181036080830152614978818461465e565b9050969550505050505056fea2646970667358221220c1d33d785d47fae9ead98c458f0e5b13bf707bcfd585d682d2730c57b6cc568764736f6c634300080c0033",
  "immutableReferences": {},
  "source": "// SPDX-License-Identifier: MIT\npragma solidity ^0.8.12;\n\nimport \"@openzeppelin/contracts/token/ERC1155/ERC1155.sol\";\nimport \"@openzeppelin/contracts/access/Ownable.sol\";\nimport \"@openzeppelin/contracts/token/ERC1155/extensions/ERC1155Supply.sol\";\nimport \"@openzeppelin/contracts/utils/Strings.sol\";\n\ncontract GameItems is ERC1155, Ownable, ERC1155Supply {\n    string public name = \"Robin Mania\";\n    address gameAddress;\n    string uriString;\n    mapping(address => uint256) public approved;\n    mapping(uint256 => uint256) public Prices;\n    mapping(uint256 => uint256) public maxSupplyPerAddress;\n\n    function changeURI(string memory newURI) public {\n        uriString = newURI;\n    }\n\n    constructor() ERC1155(\"\") {\n        gameAddress = msg.sender;\n    }\n\n    function changeName(string memory newName) public onlyOwner {\n        name = newName;\n    }\n\n    function changeGameAddress(address newaddress) public onlyOwner {\n        gameAddress = newaddress;\n    }\n\n    function ownerAddress() public view returns (address) {\n        return owner();\n    }\n\n    function showMaxSupply(uint256 tokenId) public view returns (uint256) {\n        return maxSupplyPerAddress[tokenId];\n    }\n\n    function verifyPrice(uint256 tokenId) public view returns (uint256) {\n        return Prices[tokenId];\n    }\n\n    function allowToMint(address player, uint256 id) public {\n        require(\n            msg.sender == gameAddress,\n            \"you're not allowed to do this, you're not the game\"\n        );\n        require(\n            balanceOf(player, id) < maxSupplyPerAddress[id],\n            \"this player reached the maximum number of mintings\"\n        );\n        require(balanceOf(owner(), id) > 0, \"no more to mint\");\n        require(approved[player] != id, \"already approved\");\n        approved[player] = id;\n    }\n\n    function setSupplyPerPlayer(uint256 id, uint256 supply) public onlyOwner {\n        require(\n            maxSupplyPerAddress[id] < supply,\n            \"you can't decrease the supply\"\n        );\n        maxSupplyPerAddress[id] = supply;\n    }\n\n    function setURI(string memory newuri) public onlyOwner {\n        _setURI(newuri);\n    }\n\n    function setPrice(uint256 id, uint256 price) public onlyOwner {\n        Prices[id] = price;\n    }\n\n    function uri(uint256 _tokenId)\n        public\n        view\n        override\n        returns (string memory)\n    {\n        return\n            string(\n                abi.encodePacked(uriString, Strings.toString(_tokenId), \".json\")\n            );\n    }\n\n    function mint(uint256 id) public payable {\n        require(\n            approved[msg.sender] == id,\n            \"you don't have access to mint this token, you should play the game\"\n        );\n        require(\n            balanceOf(msg.sender, id) < maxSupplyPerAddress[id],\n            \"you can't mint more\"\n        );\n        require(msg.value >= Prices[id], \"not enough KAI\");\n        require(balanceOf(owner(), id) > 0, \"no more to mint\");\n        _safeTransferFrom(owner(), msg.sender, id, 1, \"\");\n        approved[msg.sender] = 0;\n    }\n\n    function increaseSupply(\n        uint256 id,\n        uint256 amount,\n        bytes memory data\n    ) public onlyOwner {\n        _mint(owner(), id, amount, data);\n    }\n\n    function mintBatch(\n        address to,\n        uint256[] memory ids,\n        uint256[] memory amounts,\n        bytes memory data\n    ) public onlyOwner {\n        _mintBatch(to, ids, amounts, data);\n    }\n\n    // The following functions are overrides required by Solidity.\n\n    function _beforeTokenTransfer(\n        address operator,\n        address from,\n        address to,\n        uint256[] memory ids,\n        uint256[] memory amounts,\n        bytes memory data\n    ) internal override(ERC1155, ERC1155Supply) {\n        super._beforeTokenTransfer(operator, from, to, ids, amounts, data);\n    }\n\n    function withdrawAll() external onlyOwner {\n        payable(owner()).transfer(address(this).balance);\n    }\n}\n",
  "sourcePath": "/home/doublepuces/Documents/GitHub/RobinMania-Website/backend/contracts/GameItems.sol",
  "compiler": {
    "name": "solc",
    "version": "0.8.12+commit.f00d7308.Emscripten.clang"
  },
  "schemaVersion": "3.4.6",
  "updatedAt": "2022-04-03T02:25:08.570Z",
  "networkType": "ethereum",
  "devdoc": {
    "kind": "dev",
    "methods": {
      "balanceOf(address,uint256)": {
        "details": "See {IERC1155-balanceOf}. Requirements: - `account` cannot be the zero address."
      },
      "balanceOfBatch(address[],uint256[])": {
        "details": "See {IERC1155-balanceOfBatch}. Requirements: - `accounts` and `ids` must have the same length."
      },
      "exists(uint256)": {
        "details": "Indicates whether any token exist with a given id, or not."
      },
      "isApprovedForAll(address,address)": {
        "details": "See {IERC1155-isApprovedForAll}."
      },
      "owner()": {
        "details": "Returns the address of the current owner."
      },
      "renounceOwnership()": {
        "details": "Leaves the contract without owner. It will not be possible to call `onlyOwner` functions anymore. Can only be called by the current owner. NOTE: Renouncing ownership will leave the contract without an owner, thereby removing any functionality that is only available to the owner."
      },
      "safeBatchTransferFrom(address,address,uint256[],uint256[],bytes)": {
        "details": "See {IERC1155-safeBatchTransferFrom}."
      },
      "safeTransferFrom(address,address,uint256,uint256,bytes)": {
        "details": "See {IERC1155-safeTransferFrom}."
      },
      "setApprovalForAll(address,bool)": {
        "details": "See {IERC1155-setApprovalForAll}."
      },
      "supportsInterface(bytes4)": {
        "details": "See {IERC165-supportsInterface}."
      },
      "totalSupply(uint256)": {
        "details": "Total amount of tokens in with a given id."
      },
      "transferOwnership(address)": {
        "details": "Transfers ownership of the contract to a new account (`newOwner`). Can only be called by the current owner."
      }
    },
    "version": 1
  },
  "userdoc": {
    "kind": "user",
    "methods": {},
    "version": 1
  }
}